:020000040800F2
:10000000D006002089010008D116000861150008FB
:10001000CD16000891020008E51900080000000054
:100020000000000000000000000000001919000896
:10003000950200080000000041170008711900082F
:10004000A3010008A3010008A3010008A301000800
:10005000A3010008A3010008A3010008A3010008F0
:10006000A3010008A3010008A3010008A3010008E0
:10007000A3010008A3010008A3010008A3010008D0
:10008000A3010008A3010008A3010008A3010008C0
:10009000A3010008A3010008A3010008A3010008B0
:1000A000A3010008A3010008A3010008A3010008A0
:1000B000A3010008A3010008A3010008A301000890
:1000C000A3010008A3010008A3010008A301000880
:1000D000A3010008A3010008A3010008A301000870
:1000E000A3010008A3010008A301000800F002F822
:1000F00000F03AF80AA090E8000C82448344AAF188
:100100000107DA4501D100F02FF8AFF2090EBAE885
:100110000F0013F0010F18BFFB1A43F0010318473B
:10012000FC1900001C1A0000103A24BF78C878C1DE
:10013000FAD8520724BF30C830C144BF04680C60ED
:10014000704700000023002400250026103A28BF35
:1001500078C1FBD8520728BF30C148BF0B60704739
:100160001FB51FBD10B510BD00F058F81146FFF7C0
:10017000F7FF01F081FC00F076F803B4FFF7F2FF1F
:1001800003BC00F07DF8000009488047094800479B
:10019000FEE7FEE7FEE7FEE7FEE7FEE7FEE7FEE737
:1001A000FEE7FEE704480549054A064B7047000094
:1001B000E1190008ED000008D0000020D006002062
:1001C000D0020020D00200204FF0000200B51346FC
:1001D00094469646203922BFA0E80C50A0E80C5067
:1001E000B1F12001BFF4F7AF090728BFA0E80C5018
:1001F00048BF0CC05DF804EB890028BF40F8042B11
:1002000008BF704748BF20F8022B11F0804F18BF7D
:1002100000F8012B7047704770477047754600F033
:100220002BF8AE4605006946534620F00700854688
:1002300018B020B5FFF7B6FFBDE820404FF000062C
:100240004FF000074FF000084FF0000BAC46ACE851
:10025000C009ACE8C009ACE8C009ACE8C00921F0AD
:1002600007018D46704710B50446AFF30080204665
:10027000BDE81040FFF781BF004870471000002024
:1002800001491820ABBEFEE72600020070470000BF
:10029000FFE7FEE77047000081B0EFF3108072B611
:1002A0000090FFE7FEE7000080B584B0039000F007
:1002B000C5F90290039801900198013048B1FFE719
:1002C00040F20400C2F20000017801980844019055
:1002D000FFE7FFE700F0B2F90299401A019988425E
:1002E00001D2FFE7F6E704B080BD000090B00F90A8
:1002F0000E9100200D900990FFE70E9800680D996F
:10030000C840002800F07F81FFE70D990120884058
:100310000C900E9800680C9908400B900B980C9963
:10032000884240F06C81FFE70E98406805900028F5
:1003300051D0FFE7059801283AD0FFE70598022839
:100340003FD0FFE7059803285FD0FFE70598112805
:1003500032D0FFE70598122838D0FFE70598002132
:10036000C1F21101884236D0FFE705980021C1F2A1
:10037000120188422FD0FFE705980021C1F2210128
:10038000884228D0FFE705980021C1F22201884267
:1003900021D0FFE705980021C1F2310188421AD02F
:1003A000FFE705980021C1F23201884213D02FE007
:1003B0000E98C06809902CE00E98C068043009902F
:1003C00027E00E98C0680830099022E00E98C068B7
:1003D0000C3009901DE00E98806818B9FFE70420E2
:1003E000099011E00E988068012806D1FFE70820E7
:1003F00009900C980F99086105E0082009900C9865
:100400000F994861FFE7FFE703E00020099000E053
:10041000FFE70B98FF2803D8FFE70F98049003E04D
:100420000F9804300490FFE7049808900B98FF2879
:1004300004D8FFE70D988000039006E00D996FF057
:100440001F0000EB81000390FFE7039807900898D6
:100450000068079A0F219140884309999140084309
:10046000089908600E98C079C006002840F1C6803F
:10047000FFE7FFE741F21800C4F20200016841F013
:1004800001010160006800F0010006900698FFE796
:100490000D9820F003000821C4F2010140580A9091
:1004A0000D9800F0030081000F2000FA01F10A9876
:1004B00088430A900F9840F60001C4F20101884277
:1004C00003D1FFE70020029026E00F9840F600419C
:1004D000C4F20101884203D1FFE70120019018E036
:1004E0000F9841F20001C4F20101884203D1FFE7F5
:1004F000022000900AE00F9941F20042C4F201028A
:100500000420914208BF03200090FFE7009801906B
:10051000FFE701980290FFE702980D9901F00301AF
:10052000890000FA01F10A9808430A900A980D9987
:1005300021F003010822C4F2010288500E9880794C
:10054000C006002809D5FFE70B9A40F20841C4F223
:10055000010108681043086008E00B9A40F2084166
:10056000C4F20101086890430860FFE70E988079A3
:100570008006002809D5FFE70B9A40F20C41C4F22F
:10058000010108681043086008E00B9A40F20C4132
:10059000C4F20101086890430860FFE70E98807973
:1005A0008007002809D5FFE70B9A40F20441C4F206
:1005B000010108681043086008E00B9A40F204410A
:1005C000C4F20101086890430860FFE70E98807943
:1005D000C00748B1FFE70B9A40F20041C4F20101A5
:1005E00008681043086008E00B9A40F20041C4F22A
:1005F0000101086890430860FFE7FFE7FFE70D98F7
:1006000001300D9079E610B07047000082B0019083
:10061000ADF802108DF801209DF8010028B1FFE728
:10062000BDF802000199086105E0BDF80200000470
:1006300001990861FFE702B07047000040F2C8006E
:10064000C2F200000068704740F20400C2F20000ED
:10065000027840F2C801C2F2000108681044086044
:100660007047000080B542F20001C4F20201086840
:1006700040F010000860032000F08CF80F2000F01C
:1006800005F800F03BF8002080BD000080B582B086
:10069000009040F20000C2F20000006840F2040145
:1006A000C2F200010A784FF47A71B1FBF2F1B0FBAB
:1006B000F1F000F04DFF20B1FFE701208DF80700B9
:1006C00018E000980F280DD8FFE700994FF0FF3091
:1006D000002200F045F8009840F20801C2F2000143
:1006E000086003E001208DF8070003E000208DF88A
:1006F0000700FFE79DF8070002B080BD83B0FFE769
:1007000041F21800C4F20200016841F001010160E9
:10071000006800F0010002900298FFE7FFE741F255
:100720001C00C4F20200016841F0805101600068C1
:1007300000F0805001900198FFE7FFE70421C4F228
:10074000010108680090009820F0E0600090009897
:1007500040F00070009000980860FFE703B0704719
:1007600080B586B08DF817000491039200200290A6
:1007700001F03AF902909DF917000190029804994E
:10078000039A00F0A7FF0146019801F035F906B081
:1007900080BD000080B582B00190019801F04EF953
:1007A00002B080BD80B584B002900191029820B95A
:1007B000FFE701208DF80F001BE1019842F20001D4
:1007C000C4F20201096801F00701884216D9FFE767
:1007D00042F20000C4F20200016821F00701019A10
:1007E00011430160006800F007000199884204D0BD
:1007F000FFE701208DF80F00FBE0FFE7029800788B
:10080000800700282AD5FFE70298007840070028D3
:1008100009D5FFE741F20401C4F20201086840F47F
:10082000E0600860FFE7029800780007002809D51B
:10083000FFE741F20401C4F20201086840F460508D
:100840000860FFE741F20401C4F20201086820F0E9
:10085000F000029A926810430860FFE7029800785F
:10086000C007002860D0FFE70298406801280ED139
:10087000FFE741F20000C4F2020000688003002894
:1008800004D4FFE701208DF80F00B2E021E00298C8
:10089000406802280ED1FFE741F20000C4F20200D6
:1008A00000688001002804D4FFE701208DF80F00C4
:1008B0009FE00DE041F20000C4F2020000688007F2
:1008C000002804D4FFE701208DF80F0091E0FFE736
:1008D000FFE741F20401C4F20201086820F00300BE
:1008E000029A526810430860FFF7A8FE0090FFE7E5
:1008F00041F20400C4F20200006800F00C0002990A
:100900004968B0EB810F0ED0FFE7FFF797FE009923
:10091000401A41F28931884204D3FFE703208DF861
:100920000F0066E0E4E7FFE7019842F20001C4F23D
:100930000201096801F00701884216D2FFE742F27E
:100940000000C4F20200016821F00701019A11437E
:100950000160006800F007000199884204D0FFE7B9
:1009600001208DF80F0044E0FFE70298007840076F
:1009700000280CD5FFE741F20401C4F20201086827
:1009800020F4E060029AD26810430860FFE7029802
:100990000078000700280DD5FFE741F20401C4F2FA
:1009A0000201086820F46050029A126940EAC2000D
:1009B0000860FFE700F022F841F20401C4F20201EE
:1009C0000968C9B20A0941F6F821C0F60001895C3C
:1009D000C84040F20001C2F20001086040F2080085
:1009E000C2F200000068FFF751FE00208DF80F00F2
:1009F000FFE79DF80F0004B080BD000086B0002026
:100A00000590049003900290019041F20400C4F21A
:100A1000020000680590059800F00C000146009166
:100A200000283FD0FFE70098042804D0FFE7009893
:100A3000082806D037E041F20020C0F27A00019089
:100A400037E00598C0F3834141F60830C0F6000056
:100A5000405C02909DF81600C007C0B1FFE741F26C
:100A60000400C4F202000068C0F3404141F61830AF
:100A7000C0F60000405C0490029841F20021C0F2F0
:100A80007A0148430499B0FBF1F0039007E0029823
:100A900040F60011C0F23D0148430390FFE7039880
:100AA000019006E0FFE741F20020C0F27A000190D9
:100AB000FFE7019806B0704780B586B004900498AF
:100AC00020B9FFE701208DF817002EE30498007885
:100AD000C007002800F0AE80FFE741F20400C4F236
:100AE0000200006800F00C00042813D0FFE741F278
:100AF0000400C4F20200006800F00C0008281BD1BA
:100B0000FFE741F20400C4F202000068C0030028BD
:100B100012D5FFE741F20000C4F202000068800332
:100B2000002808D5FFE70498406820B9FFE70120B6
:100B30008DF81700F9E27CE0FFE704984068B0F513
:100B4000803F09D1FFE741F20001C4F202010868C9
:100B500040F48030086032E00498406868B9FFE7EC
:100B600041F20001C4F20201086820F480300860FC
:100B7000086820F48020086020E004984068B0F500
:100B8000A02F0DD1FFE741F20001C4F20201086875
:100B900040F480200860086840F4803008600CE071
:100BA00041F20001C4F20201086820F480300860BC
:100BB000086820F480200860FFE7FFE7FFE7FFE711
:100BC00004984068D0B1FFE7FFF738FD0390FFE7D6
:100BD00041F20000C4F202000068800300280CD437
:100BE000FFE7FFF72BFD0399401A652804D3FFE7C1
:100BF00003208DF8170098E2EAE719E0FFF71EFDE1
:100C00000390FFE741F20000C4F202000068800395
:100C100000280CD5FFE7FFF711FD0399401A65285E
:100C200004D3FFE703208DF817007EE2EAE7FFE731
:100C3000FFE7FFE7049800788007002840F18D80E7
:100C4000FFE741F20400C4F20200006810F00C0F4C
:100C500013D0FFE741F20400C4F20200006800F084
:100C60000C00082829D1FFE741F20400C4F2020079
:100C70000068C003002820D4FFE741F20000C4F25E
:100C8000020000688007002809D5FFE70498006982
:100C9000012804D0FFE701208DF8170045E241F25A
:100CA0000001C4F20201086820F0F800049A5269B9
:100CB00040EAC2000860FFE74EE00498006958B3BC
:100CC000FFE70021C4F2422101200860FFF7B6FCD3
:100CD0000390FFE741F20000C4F2020000688007C1
:100CE00000280CD4FFE7FFF7A9FC0399401A03285A
:100CF00004D3FFE703208DF8170016E2EAE741F27C
:100D00000001C4F20201086820F0F800049A526958
:100D100040EAC20008601EE00021C4F24221002027
:100D20000860FFF78BFC0390FFE741F20000C4F27C
:100D300002000068800700280CD5FFE7FFF77EFC63
:100D40000399401A032804D3FFE703208DF8170006
:100D5000EBE1EAE7FFE7FFE7FFE704980078000729
:100D6000002848D5FFE70498806918B3FFE740F2F0
:100D70008041C4F2422101200860FFF75FFC03902C
:100D8000FFE741F22400C4F2020000688007002857
:100D90000CD4FFE7FFF752FC0399401A032804D351
:100DA000FFE703208DF81700BFE1EAE7012000F01C
:100DB000C9FC1FE040F28041C4F2422100200860DB
:100DC000FFF73CFC0390FFE741F22400C4F202006D
:100DD0000068800700280CD5FFE7FFF72FFC039978
:100DE000401A032804D3FFE703208DF817009CE185
:100DF000EAE7FFE7FFE7049800784007002840F1A2
:100E0000D880FFE700208DF8070041F21C00C4F2F3
:100E100002000068C000002813D4FFE7FFE741F29A
:100E20001C00C4F20200016841F0805101600068BA
:100E300000F0805000900098FFE701208DF8070037
:100E4000FFE747F20000C4F200000068C005002878
:100E500022D4FFE747F20001C4F20001086840F421
:100E600080700860FFF7EAFB0390FFE747F200009D
:100E7000C4F200000068C00500280CD4FFE7FFF7AB
:100E8000DDFB0399401A652804D3FFE703208DF8A2
:100E900017004AE1EAE7FFE7FFE70498C068012886
:100EA00009D1FFE741F22001C4F20201086840F0D5
:100EB0000100086031E00498C06868B9FFE741F2BA
:100EC0002001C4F20201086820F0010008600868EF
:100ED00020F0040008601FE00498C06805280DD1C8
:100EE000FFE741F22001C4F20201086840F004006B
:100EF0000860086840F0010008600CE041F2200141
:100F0000C4F20201086820F001000860086820F0BF
:100F100004000860FFE7FFE7FFE7FFE70498C06809
:100F2000E0B1FFE7FFF78AFB0390FFE741F2200003
:100F3000C4F202000068800700280ED4FFE7FFF724
:100F40007DFB0399401A41F28931884204D3FFE7BF
:100F500003208DF81700E8E0E8E71BE0FFF76EFBE1
:100F60000390FFE741F22000C4F20200006880070E
:100F700000280ED5FFE7FFF761FB0399401A41F205
:100F80008931884204D3FFE703208DF81700CCE0B5
:100F9000E8E7FFE79DF80700012809D1FFE741F2E4
:100FA0001C01C4F20201086820F080500860FFE7CD
:100FB000FFE70498C069002800F0B380FFE741F222
:100FC0000400C4F20200006800F00C00082800F0E1
:100FD0008280FFE70498C06902285CD1FFE76021A6
:100FE000C4F2422100200860FFF728FB0390FFE7CE
:100FF00041F20000C4F202000068800100280CD514
:10100000FFE7FFF71BFB0399401A032804D3FFE710
:1010100003208DF8170088E0EAE70498006AB0F52D
:10102000803F0CD1FFE741F20401C4F202010868DD
:1010300020F40030049A926810430860FFE741F200
:101040000401C4F20201086820F47410049B1A6AB7
:101050005B6A1A43104308606021C4F242210120F8
:101060000860FFF7EBFA0390FFE741F20000C4F2DB
:1010700002000068800100280CD4FFE7FFF7DEFAC9
:101080000399401A032804D3FFE703208DF81700C3
:101090004BE0EAE71EE06021C4F242210020086034
:1010A000FFF7CCFA0390FFE741F20000C4F2020020
:1010B0000068800100280CD5FFE7FFF7BFFA03990D
:1010C000401A032804D3FFE703208DF817002CE013
:1010D000EAE7FFE724E00498C069012804D1FFE7AC
:1010E00001208DF8170020E041F20400C4F2020054
:1010F00000680290029800F480300499096A8842DE
:1011000008D1FFE7029800F470100499496A8842F8
:1011100004D0FFE701208DF8170006E0FFE7FFE7A6
:10112000FFE700208DF81700FFE79DF8170006B0D5
:1011300080BD000080B584B00290029820B9FFE71E
:1011400001208DF80F006DE00298406A60B9FFE75A
:1011500002984068B0F5827F01D1FFE703E0029971
:101160000020C861FFE705E00299002008610299AC
:101170004861FFE7029900208862029890F85100C8
:1011800040B9FFE70299002081F85000029800F072
:101190004DF8FFE70299022081F85100029801689A
:1011A000086820F040000860029A019211685068B7
:1011B000D2F808C0D36800F482700CF4044C604488
:1011C00003F400631844136903F0020318445369DD
:1011D00003F001031844936903F400731844D369BE
:1011E00003F038031844136A03F080031843926A2B
:1011F00002F40052104308600299488B00F004008A
:101200000968486002980168C86920F40060C861F4
:10121000029900204865029A012182F851108DF848
:101220000F00FFE79DF80F0004B080BD80B588B0C7
:10123000079000200690059004900390079800689E
:1012400043F20001C4F2010188422CD1FFE7FFE71D
:1012500041F21800C4F20200016841F480510160BB
:10126000006800F4805002900298FFE7FFE741F227
:101270001800C4F20200016841F004010160006836
:1012800000F0040001900198FFE7A02003900220E5
:1012900004900320069040F60000C4F2010003A968
:1012A000FFF724F8FFE708B080BD000080B588B0E4
:1012B00006900591ADF812200393FFF7BFF9029055
:1012C000BDF81200ADF80600069890F8510001280C
:1012D00004D0FFE702208DF81F0034E1059820B10B
:1012E000FFE7BDF8120020B9FFE701208DF81F00CD
:1012F00029E1FFE7069890F85000012804D1FFE7A4
:1013000002208DF81F001EE10699012081F850008F
:10131000FFE7FFE70699032081F8510006990020B6
:1013200048650599069A1163BDF81210069A9186D0
:10133000BDF81210069AD1860699886306998887A7
:101340000699C887069948640699086406988068D3
:10135000B0F5004F0DD1FFE706980168086820F04E
:101360004000086006980168086840F48040086002
:10137000FFE706980068006800F04000402807D0AA
:10138000FFE706980168086840F040000860FFE742
:101390000698C068B0F5006F51D1FFE70698406825
:1013A00028B1FFE7BDF8060001280ED1FFE7069837
:1013B0000168006B0088C8600699086B02300863FA
:1013C0000699C88E0138C886FFE7FFE70698C08EE9
:1013D000A0B3FFE7069800688068800700280ED554
:1013E000FFE706980168006B0088C8600699086BE3
:1013F000023008630699C88E0138C8861DE0FFF7E1
:101400001DF90299401A0399884204D3FFE7039813
:10141000013018B9FFE7039870B9FFE7069901207A
:1014200081F85100FFE70699002081F85000FFE79E
:1014300003208DF81F0086E0FFE7C7E750E006981D
:10144000406828B1FFE7BDF8060001280ED1FFE78C
:1014500006980168006B007808730699086B0130E4
:1014600008630699C88E0138C886FFE7FFE706982B
:10147000C08EA0B3FFE70698006880688007002848
:101480000ED5FFE706980168006B0078087306998F
:10149000086B013008630699C88E0138C8861DE0C4
:1014A000FFF7CCF80299401A0399884204D3FFE76A
:1014B0000398013018B9FFE7039870B9FFE7069960
:1014C000012081F85100FFE70699002081F85000C3
:1014D000FFE703208DF81F0035E0FFE7C7E7FFE7D0
:1014E00006980399029A00F04BF920B1FFE706999C
:1014F00020204865FFE70698806870B9FFE7FFE79E
:101500000020009006980068C06800900698006867
:10151000806800900098FFE7FFE70699012081F8B6
:101520005100FFE70699002081F85000FFE7069878
:10153000406D20B1FFE701208DF81F0003E000207F
:101540008DF81F00FFE79DF81F0008B080BD000068
:1015500080B582B00190019800F0E0F902B080BD42
:10156000FFE7FEE780B590B000200F900E900D9041
:101570000C90FFE741F21800C4F20200016841F04C
:1015800010010160006800F010000B900B98FFE75D
:10159000FFE741F21800C4F20200016841F02001A7
:1015A0000160006800F020000A900A98FFE7FFE75A
:1015B00041F21800C4F20200016841F00401016028
:1015C000006800F0040009900998FFE7FFE741F286
:1015D0001800C4F20200016841F0080101600068CF
:1015E00000F0080008900898FFE741F20000C4F2FC
:1015F000010001904FF40051009100220492FFF786
:1016000005F8049A40F60000C4F20100029002219D
:101610000591FEF7FBFF049A40F60040C4F201007A
:10162000069001210391FEF7F1FFDDF800C001985B
:10163000039B049A0599CDF830C00D930E920F913B
:101640000CA90791FEF752FE0298039B059A079991
:101650000C920D930E930F92FEF748FEDDF80CC02E
:10166000049B059A06980799CDF830C0CDF834C090
:101670000E930F92FEF73AFE10B080BD80B582B097
:1016800040F27000C2F20000019043F20001C4F287
:10169000010101604FF48271416000218160C160ED
:1016A000016141614FF4007282612022C2610162D6
:1016B000416281620A21C162FFF73CFD18B1FFE778
:1016C000FEF7EAFDFFE702B080BD0000FFE7FEE79E
:1016D000FFE7FEE788B0079006910592079800F0B3
:1016E000070004900498C0F10700052803D3FFE722
:1016F0000420019004E00498C0F107000190FFE786
:101700000198039004980430062803D8FFE70020CE
:10171000009003E0049803380090FFE700980290DF
:1017200006980399012202FA01F101390840029B4F
:10173000984005999A40013A1140084308B0704713
:101740007047000082B00190019840F20001C2F29F
:1017500000010968C90844F6D352C1F26202A1FB34
:101760000221890948430090FFE700BFFFE7009886
:10177000411E00910028F8D1FFE702B07047000039
:1017800080B586B00490039102920498039B02995D
:101790006A4611600221012200F028F848B1FFE7F3
:1017A0000499486D40F02000486503208DF817002B
:1017B00017E00498039B02996A4611608021002279
:1017C00000F014F848B1FFE70499486D40F020009C
:1017D000486503208DF8170003E000208DF81700FE
:1017E000FFE79DF8170006B080BD000080B58AB005
:1017F000DDF830C0089007918DF81B2005930598FF
:101800000190FEF71BFF024601980C99891A0844C3
:101810000390FEF713FF0290039840F20001C2F21A
:1018200000010968C1F3CB3148430490FFE70898F1
:101830000068806807990840401AB0FA80F04009B3
:101840009DF81B1088425ED0FFE705980130002804
:1018500058D0FFE7FEF7F2FE0299401A039988423A
:1018600004D2FFE70398002842D1FFE708980168F7
:10187000486820F0E000486008984068B0F5827F32
:1018800013D1FFE708988068B0F5004F06D0FFE756
:1018900008988068B0F5806F07D1FFE70898016865
:1018A000086820F040000860FFE70898806AB0F5FB
:1018B000005F0FD1FFE7FFE708980168086820F490
:1018C0000050086008980168086840F400500860FB
:1018D000FFE7FFE70899012081F85100FFE7089929
:1018E000002081F85000FFE703208DF827000EE06C
:1018F000049818B9FFE700200390FFE70498013827
:101900000490FFE793E700208DF82700FFE79DF89C
:1019100027000AB080BD00007047000080B582B08B
:10192000009000980138B0F1807F03D3FFE70120D9
:10193000019019E0009801384EF21401CEF2000136
:1019400008604FF0FF300F2100F056F84EF21801FA
:10195000CEF20001002008604EF21002CEF200022A
:10196000072111600190FFE7019802B080BD0000DF
:1019700080B5FEF769FE80BD80B590B006A80090E6
:101980002821FEF721FC0098002105910491039184
:10199000029101910222069201230A9310230B93D4
:1019A0000D920E914FF480110F91FFF785F818B149
:1019B000FFE7FEF771FCFFE70F2001900220029085
:1019C000002103914FF480600490059101A8FEF777
:1019D000E9FE18B1FFE7FEF75FFCFFE710B080BD3E
:1019E00070470000FFE7FEE74EF60C50CEF2000015
:1019F0000068C0F30220704782B08DF807000091A4
:101A00009DF9070000280AD4FFE7009800019DF91E
:101A100007104EF20042CEF2000288540BE000980C
:101A200000019DF8071001F00F014EF61452CEF29E
:101A300000028854FFE702B07047000083B00290B4
:101A4000029800F0070000904EF60C51CEF2000113
:101A50000868019001984FF6FF021040019001982C
:101A6000009A40EA02200022C0F2FA52104301908C
:101A70000198086003B0704780B582B000200190E3
:101A8000FEF7F0FDFFF778FFFFF76CFDFFF7F6FDBF
:101A900040F60040C4F2010001221146FEF7B6FDF7
:101AA00064200090FFE7FF2000F006F84FF4FA7082
:101AB000FEF7FAFBF7E7000080B584B08DF80F0061
:101AC00040F60040C4F20100029001210191002281
:101AD000FEF79CFD019A40F27000C2F200000DF189
:101AE0000F014FF47A73FFF7E1FB019A0298114658
:101AF000FEF78CFD04B080BD000000000000000077
:101B00000102030406070809020304050607080981
:101B10000A0B0C0D0E0F101001020000401B0008F4
:101B2000000000201000000028010008501B0008E1
:101B300010000020C0060000440100080000000062
:101B400000127A00010000001000000000000000F8
:04000005080000ED02
:00000001FF
